:020000040800F2
:100000000000012009030008500300085003000805
:1000100050030008500300085003000800000000CF
:100020000000000000000000000000005003000875
:1000300050030008000000005003000850030008AF
:1000400080B500AF00F0C4F800F03EF800BF80BDFE
:1000500080B582B000AF0023FB7100F08FF803463B
:10006000002B02D1FB790133FB7100F095F80346B8
:10007000002B02D1FB790133FB7100F09BF80346A2
:10008000002B02D1FB790133FB71FB79032B02D1E9
:1000900000F0D2F80DE0FB79022B02D100F000F95C
:1000A00007E0FB79012B02D100F014F901E000F028
:1000B000DDF800BF0837BD4680BD80B500AFFFF753
:1000C000BFFFFFF7C5FFFCE780B400AF284B1B68FC
:1000D000274A43F001031360264B1B68254A23F08F
:1000E00004031360234B1B68224A23F008031360A8
:1000F000214B1B68204A43F0040313601E4B1B680E
:100100001D4A23F0080313601A4B1B68194A23F099
:1001100010031360174B1B68164A23F0200313606B
:10012000154B1B68144A43F010031360124B1B68F5
:10013000114A23F0200313600E4B1B680D4A23F075
:10014000400313600B4B1B680A4A23F080031360C3
:10015000094B1B68084A43F040031360064B1B68B9
:10016000054A23F08003136000BFBD4680BC704782
:1001700030380240000002400C00024080B400AF62
:10018000044B1B685B0803F001031846BD4680BCA6
:10019000704700BF1000024080B400AF044B1B68E2
:1001A0009B0803F001031846BD4680BC704700BFA2
:1001B0001000024080B400AF044B1B68DB0803F062
:1001C00001031846BD4680BC704700BF10000240C6
:1001D00080B400AF164B1B68154A43F0020313604E
:1001E000144B1B68134A43F004031360114B1B6844
:1001F000104A23F0080313600E4B1B680D4A43F0AE
:10020000100313600B4B1B680A4A23F02003136092
:10021000084B1B68074A43F040031360054B1B68FB
:10022000044A23F08003136000BFBD4680BC7047C2
:10023000303802400004024080B400AF0A4B1B6813
:10024000094A43F002031360074B1B68064A43F058
:1002500004031360044B1B68034A43F00803136054
:1002600000BFBD4680BC70471404024080B400AF9C
:100270000A4B1B68094A23F002031360074B1B68F3
:10028000064A23F004031360044B1B68034A23F05F
:100290000803136000BFBD4680BC704714040240D1
:1002A00080B400AF0A4B1B68094A43F00203136095
:1002B000074B1B68064A43F004031360044B1B689A
:1002C000034A23F00803136000BFBD4680BC70479B
:1002D0001404024080B400AF0A4B1B68094A43F083
:1002E00002031360074B1B68064A23F004031360E4
:1002F000044B1B68034A23F00803136000BFBD468C
:1003000080BC7047140402400B480C490C4A9142CF
:1003100004DA50F8043B41F8043BF8E709490A4A7B
:100320000023914202DA41F8043BFAE700F012F8A8
:10033000FFF7C3FEFEE70000A00300080000002056
:1003400000000020000000200000002070477047DF
:10035000FEE7000070B50E4E0E4DAE4208D0761B83
:10036000B610002455F8043B01349847A642F9D84A
:10037000094E0A4DFFF7EAFFAE4208D0761BB610D1
:10038000002455F8043B01349847A642F9D870BDC3
:10039000A0030008A0030008A0030008A0030008B1
:0400000508000309E3
:00000001FF
